21:43:45.360608 IP 106.120.206.249.60987 > 120.24.83.10.81: Flags [S], seq 1244600374, win 65535, options [mss 1386,nop,wscale 5,nop,nop,TS val 802678219 ecr 0,sackOK,eol], length 0
	0x0000:  4514 0040 d98f 4000 3006 6c80 6a78 cef9  E..@..@.0.l.jx..
                 IPv4: version:4, 长度:5(20 bytes) tos:14, 16位整个数据报总长度: 0040(IP首部+IP payload 层, 0040=64bytes)
                    d98f:(55695) 每传一个IP 数据报, 16位标识加1, 可用于分片和重新组装数据报
                        当数据报由于长度超过网络的MTU而必须分片时，这个标识字段的值就被复制到所有的数据报的标识字段中。
                        相同的标识字段的值使分片后的各数据报片最后能正确地重装成为原来的数据报。
                    4000: 
                        1. 3位标志: 但目前只有2位有意义
                            最低位记为MF(More Fragment)。
                                MF=1即表示后面“还有分片”的数据报。
                                MF=0表示这已是若干数据报片中的最后一个。
                            中间的一位记为DF(Don’t Fragment)，意思是“不能分片”。
                                只有当DF=0时才允许分片
                        2. 13 位片偏移用于分片
                            片偏移以8个字节为偏移单位。除了最后一个分片，每个分片的长度一定是8字节（64位）的整数倍。
                    3006:
                        1. 8位生存时间TTL(Time To Live)是这样用的: 源主机的为数据包设定一个生存时间,比如64, 每经过一个路由就减1, 如果减到0 就表示路由太长了,就丢弃这个数据包, 这个时间单位不是秒,而是跳(hop).
                        1. 8位协议指示上层协议是TCP/UDP/ICMP/IGMP: 8位上层协议0x11 表示UDP 协议；
                    6c80:
                        1. 16位首部校验和, 只校验IP 首部,数据的检验由更高层协议负责.
                    6a78 cef9: IPv4 的源地址长度是32位
	0x0010:  7818 530a ee3b 0051 4a2f 1836 0000 0000  x.S..;.QJ/.6....
                IPv4:
                    7818 530a: IPv4 的目标地址长度是32位
                TCP:
                    ee3b 源端口 0051 目标端口
                    4a2f 1836(seq=1244600374) 32序号
                    0000 0000(ack=0) 32位确认序号

	0x0020:  b002 ffff cc1d 0000 0204 056a 0103 0305  ...........j....
                      b002 ffff:  4位首部长度+6位保留位+6bit组(URG/ACK/PSH/RST/SYN/FIN)
	0x0030:  0101 080a 2fd7 e5cb 0000 0000 0402 0000  ..../...........
